:1000000000800020BD010000F90D0000C50D0000BA
:10001000C50D0000C50D0000C50D0000C50D000098
:10002000C50D0000C50D0000C50D0000F90D000054
:10003000F90D0000C50D0000F90D0000B50D000020
:10004000F90D0000F90D0000F90D0000F90D000098
:10005000F90D0000F90D0000F90D0000F90D000088
:10006000F90D0000F90D0000F90D0000F90D000078
:10007000F90D0000F90D0000F90D0000F90D000068
:10008000F90D0000F90D0000F90D0000F90D000058
:10009000F90D0000F90D0000F90D0000F90D000048
:1000A000F5310000F90D0000F90D0000F90D000018
:1000B000F90D0000F90D0000F90D0000F90D000028
:1000C000F90D0000F90D0000F90D0000F90D000018
:1000D000F90D0000F90D0000F90D0000F90D000008
:1000E000F90D0000F90D0000F90D0000F90D0000F8
:1000F000F90D000095260000F90D0000352B0000D9
:10010000F90D0000012F0000F90D0000F90D0000AD
:10011000F90D0000F90D0000F90D0000F90D0000C7
:10012000F90D0000F90D0000F90D0000F90D0000B7
:10013000F90D0000F90D0000F90D0000F90D0000A7
:10014000F90D0000F90D0000F90D0000F90D000097
:10015000F90D0000F90D0000F90D0000F90D000087
:10016000F90D000059150000F90D0000F90D00000F
:10017000F90D0000F90D0000F90D0000F90D000067
:10018000F90D0000F90D0000F90D0000F90D000057
:10019000F90D0000F90D0000F90D0000F90D000047
:1001A000F90D0000F90D0000F90D0000F90D000037
:1001B000F90D0000F90D0000F90D0000584B4CF24C
:1001C000205210B51A804DF628121A8000BF00BFC9
:1001D00000F016FE534B4FF010621A60524A9A60BC
:1001E000524ADA60A3F53043203B1A6812F4807259
:1001F00004D14F490A604FF4A8521A604D4B1A7847
:10020000110703D51A7842F008021A704A4B2A22C5
:100210001A700023494A4A499818884204D2494929
:10022000595899500433F5E7474A484B9A424FF0E2
:10023000000302D242F8043BF7E74549454A5958C2
:1002400099500433B3F5DE7FF7D1434B802103F897
:10025000011B42498B42F9D1414B1A60414B0A22A2
:100260001A70A3F6FF7324221A70A02203F8012C3F
:100270003D4B1A789207FBD51A78D406FCD41A782D
:1002800002F00C02082AFAD1384B05221A704322D8
:100290005A70354B1A789006FBD51A785106FCD562
:1002A000334B4FF081721A6005225A60314B202285
:1002B0001A702D4B1B7803F00C030C2BF9D12E4B2D
:1002C0002E4A1A602E4B2F4A1A6000225A600722CB
:1002D00043F8042C2C4AC3F80C2D62B601F024F824
:1002E000134B1B68DA0705D5284800F059FF284B47
:1002F000284A1A60284B1B785B0609D5244C254AEE
:100300002368934204D1214800F04AFF0023236070
:1003100003F038F900F07AFD00F0AAFCFEE700BF18
:100320000E20054030800440823F04000100002B75
:1003300014D0034002D0074000E007406087FF1F51
:10034000A490FF1FB8420000A490FF1F5895FF1F04
:10035000000000000082FF1F00E400E05FE400E016
:1003600008ED00E00050064006400640044006400C
:10037000448004400040064004800440C010050052
:1003800014E000E03F1901000000202000D1445695
:100390001CE00340A5C3945A00F00740FFFFFFFF95
:1003A000FFFFFFFFFFFFFFFFFFFFFFFFFFFFFFFF5D
:1003B000FFFFFFFFFFFFFFFFFFFFFFFFFFFFFFFF4D
:1003C000FFFFFFFFFFFFFFFFFFFFFFFFFFFFFFFF3D
:1003D000FFFFFFFFFFFFFFFFFFFFFFFFFFFFFFFF2D
:1003E000FFFFFFFFFFFFFFFFFFFFFFFFFFFFFFFF1D
:1003F000FFFFFFFFFFFFFFFFFFFFFFFFFFFFFFFF0D
:10040000FFFFFFFFFFFFFFFFFFFFFFFFFEFFFFFFFD
:1004100010B5054C237833B9044B13B10448AFF33E
:1004200000800123237010BDA490FF1F0000000076
:10043000B042000008B5064B1BB106480649AFF3B1
:1004400000800648036813B1054B03B1984708BD07
:1004500000000000B0420000A890FF1FA490FF1F02
:1004600000000000002AF0B50CBF4FF064524FF0BE
:10047000605200240F4E104FA65B104D97FBF6F60E
:10048000B14255F8145004D3190706D542F08062E2
:1004900003E002342E2CEDD1F6E75B0707D525F4F7
:1004A000704305F4704542F0007243EA15152A4383
:1004B0000260F0BDE8410000005125021842000032
:1004C00010B50446FFF7CEFF204610BD10B5184BFF
:1004D0001A7802B372B61B78D90707D5154A1649A0
:1004E000146809682140154C216011609A0707D5EE
:1004F000134A1149146849682140104C6160116029
:100500005B0707D50F4B0C4A196892680A400B49E4
:100510008A601A6062B60C4BDA68824207D00B4AD6
:100520001A60D8600A4A40F0804018611A6010BD15
:100530001095FF1F80E100E0F894FF1F0495FF1F56
:1005400084E100E088E100E000C0024001401F00BB
:1005500000001F800A4B1B788BB1D90703D5094ACD
:100560001168094A11609A0703D5064A5168074A7B
:1005700011605B0703D5034B9A68054B1A607047FF
:100580001095FF1F0495FF1F00E100E004E100E06B
:1005900008E100E0FF220170C27082704270704773
:1005A000FF2303707047FFFFC1784BB201330CD1BA
:1005B000074B4FF00042DA6200225A63DA6A002ADF
:1005C000FCDA034B986BC0B27047807800F05CBED9
:1005D00000C002400A46C1784BB201330AD1074B32
:1005E0004FF00041D9625A63DA6A002AFCDA034B01
:1005F0009B6B7047407800F02DBE00BF00C00240EA
:10060000014B024A1A607047C090FF1F0000023879
:1006100070B590F90030013304460E46154610D1EE
:100620002179174802F068FE3146154802F010FDA6
:100630002946134802F00CFD1148BDE8704002F055
:1006400042BF90F90330013303D10E4B1868FFF716
:100650003DFF2078002100F0B3FD20463146FFF732
:10066000B9FF20462946FFF7B5FF2078012100F0A9
:10067000A7FD94F90330013301D1FFF76BFF70BD83
:10068000E094FF1FC090FF1F38B590F90030013390
:1006900004460D461BD121791F4802F02DFE294644
:1006A0001D4802F0D5FC1C4802F00DFF21791A48C4
:1006B00002F022FE21791848012202F001FF1648BB
:1006C00002F0EEFCC5B2144802F0FDFE22E090F903
:1006D0000330013303D1114B1868FFF7F7FE207880
:1006E000002100F06DFD45F080012046FFF772FF0C
:1006F00000212046FFF76EFF2046FFF755FF01213E
:100700000546207800F05CFD94F90330013301D1F7
:10071000FFF720FF284638BDE094FF1FC090FF1F61
:1007200008B54021FFF7B0FFC0F3C01008BD08B501
:100730004B21FFF7A9FFC0F3401008BD38B50021D9
:100740000546FFF7A1FF012104462846FFF79CFF5D
:100750002402A4B2204380B238BDFFFF37B504465F
:10076000007843B201330D4629D0E3785AB2013202
:1007700014D1012100F052FD2078012100F020FD6C
:1007800002F0AAFE0122002301A84A49FFF798FEC1
:10079000494A019B13600023A36014E0184601211D
:1007A00000F03CFD2078012100F038FD6078012147
:1007B00000F034FDA078002100F030FD03E03F4858
:1007C00002F0F6FC25712046FFF7B8FF40F6110550
:1007D000A84209D1204603210222FFF719FF0A206F
:1007E00000F08EFD00251AE094F90030013301D1AC
:1007F00000205DE094F903300133F9D12D49012245
:10080000042301A8FFF75CFE2B4A019B136004231D
:10081000A3602046FFF792FFA842E9D1DAE7E9B2E8
:1008200020460135FFF730FF412DF8D12046042145
:100830000022FFF7EDFE204640210122FFF7E8FEEF
:1008400020460A210122FFF7E3FE204620216022F4
:10085000FFF7DEFE204621210222FFF7D9FE2046C7
:100860002946A422FFF7D4FE204656210622FFF790
:10087000CFFE20464A210122FFF7CAFE20464B2127
:100880000122FFF7C5FE20464B210022FFF7C0FEE4
:10089000204658210122FFF7BBFE20460B21FF22F4
:1008A000FFF7B6FE204609210522FFF7B1FE012021
:1008B00003B030BD40420F00C090FF1FE094FF1F07
:1008C0002DE9F34105460E46174698460024284672
:1008D000D721FFF7D9FE01AB18550134042CF6D10E
:1008E0009DF804309DF805001B0143EA1013338086
:1008F0009DF8063000F00F0043EA00209DF8073015
:10090000388088F800302846FFF711FF38B12846B4
:100910000B21FF2202B0BDE8F041FFF779BE02B023
:10092000BDE8F081704738B5044608460D4603F02F
:100930000BF9236802465B6820462946984738BD74
:1009400038B50446FFF7EFFF0546204600F040F9B2
:10095000284438BD2DE9F043074600F1400685B034
:1009600007F14C05304690468946FFF719FE2846A8
:10097000FFF716FE01AC002387F85A30494620469F
:10098000FFF708FE94E8070086E807004146204686
:10099000FFF700FE94E8070085E807003046412194
:1009A000FFF7DCFE20B909480949FFF7C9FFFEE758
:1009B00028464121FFF7D2FE20B904480549FFF738
:1009C000BFFFFEE7384605B0BDE8F083C492FF1FC5
:1009D000D83E0000F63E00007047FFFFF0B5674EBE
:1009E00091B00025664C062707FB05473846FFF700
:1009F00097FE403C06F80C0C88B13846FFF797FE8E
:100A000040B960490A1D384629442A443346FFF755
:100A100057FFF2E738460B21FF22FFF7F9FD16F8E2
:100A20000C2C94F85A30584F02351343042D84F897
:100A30005A3006F10106D5D100F042FC534A136842
:100A400042F20F71C01A884240F2968003F51C539F
:100A50001033136097F85A30002B00F08D8097F810
:100A600058301BB1B7F85C20120A00E01A468DF826
:100A7000002013B194F85C2000E01A468DF80120A4
:100A80001BB1B4F86020120A00E01A468DF802206B
:100A900013B194F8602000E01A468DF803200BB1E2
:100AA00094F864308DF8043094F8593023B1364A04
:100AB000B2F85E20120A00E01A468DF8052013B144
:100AC00094F85E2000E01A468DF806201BB1B4F8B9
:100AD0006220120A00E01A468DF8072013B194F83C
:100AE000622000E01A468DF808200BB194F86530BA
:100AF0008DF80930002300AA1A4401330026362B52
:100B00009672F8D168460A2101F0B4F81E4D95F8A6
:100B1000581011B1A319B3F85C101D4800F0A0F8EB
:100B20001C491B48FFF7FFFE95F8581011B1A31997
:100B3000B3F86010164800F093F816491448FFF710
:100B4000F2FE95F8581009B195F86410104800F0BD
:100B500087F802360E480F49FFF7E5FE042E05F12F
:100B60000105D4D10C490A48FFF7DDFE084800F022
:100B70002FF8002384F85A3011B0F0BD2891FF1FE0
:100B80000491FF1F2091FF1FC490FF1F2C91FF1F96
:100B9000C492FF1F143F0000153F000010B500F085
:100BA0008FFB074C074B0A2118600F222046FFF7E6
:100BB000D1FE20460449054ABDE8104002F0D2BCEF
:100BC000C490FF1F2C91FF1F250900006087FF1FA5
:100BD00007B5064B1B88ADF80430036801A95B68B4
:100BE0000222984703B05DF804FB00BF163F0000E7
:100BF00070B505468AB022B90368C9B21B68984728
:100C00002CE0012A08BF0A2221B930228DF82520C4
:100C1000212413E02124B1FBF2F002FB1011C9B230
:100C200009290AAE94BF303137312644C9B206F8DB
:100C3000241C014610B1013CE4B2ECE733B1013CA5
:100C4000E4B20AAB23442D2203F8242C2B6801A91B
:100C50005B6828462144C4F1220298470AB070BD5F
:100C60000029BABF49422D2300230A22FFF7C0BF43
:100C700008B5FFF7B1FEFFF7B1FE01F05DF9FAE745
:100C8000844641EA000313F003036DD1403A41D397
:100C900051F8043B40F8043B51F8043B40F8043B56
:100CA00051F8043B40F8043B51F8043B40F8043B46
:100CB00051F8043B40F8043B51F8043B40F8043B36
:100CC00051F8043B40F8043B51F8043B40F8043B26
:100CD00051F8043B40F8043B51F8043B40F8043B16
:100CE00051F8043B40F8043B51F8043B40F8043B06
:100CF00051F8043B40F8043B51F8043B40F8043BF6
:100D000051F8043B40F8043B51F8043B40F8043BE5
:100D1000403ABDD2303211D351F8043B40F8043B85
:100D200051F8043B40F8043B51F8043B40F8043BC5
:100D300051F8043B40F8043B103AEDD20C3205D395
:100D400051F8043B40F8043B043AF9D2043208D08D
:100D5000D2071CBF11F8013B00F8013B01D30B88FF
:100D600003806046704700BF082A13D38B078DD0DD
:100D700010F003038AD0C3F10403D21ADB071CBFAF
:100D800011F8013B00F8013B80D331F8023B20F819
:100D9000023B7BE7043AD9D3013A11F8013B00F852
:100DA000013BF9D20B7803704B7843708B788370DA
:100DB00060467047024B1A6801321A60704700BFE4
:100DC000B891FF1F08B50B4C2368580301D500F0FC
:100DD000C3FB2368590501D501F05CFC23681A05A3
:100DE00001D501F0A7FE2368DB04ECD502F088F8FA
:100DF000E9E700BF3480044008B5FFF7E3FFFFFFD9
:100E0000014B10221A807047002005407047FFFFF9
:100E1000024A136818441060184670476487FF1F21
:100E2000EFF31383ABB9EFF31083ABB9EFF30583A3
:100E300023B10F2B05D9094A985C03E04FF4807069
:100E400000E00020EFF311833BB1834238BF184626
:100E500070474FF0FF30704700207047F0E300E02C
:100E600010B50023B0FBF2F402FB1400092894BF74
:100E700030303730C0B2C85420460CB10133F1E7EE
:100E8000CA18547022469A4206DA885CCC5C8C54AC
:100E9000C8540132013BF6E7084610BD1F4B10B5A0
:100EA0001C681C60E00304D51D4B1A680AB11B685E
:100EB0009847A10304D51A4B5A680AB15B68984752
:100EC000E20704D5164B1A6C0AB11B6C9847A307AE
:100ED00004D5134B5A6C0AB15B6C9847200704D5B4
:100EE0000F4B9A6C0AB19B6C9847610704D50C4B69
:100EF000DA6C0AB1DB6C9847220304D5084B5A6EB2
:100F00000AB15B6E9847630306D5054BD3F8802082
:100F100012B1D3F88030984710BD00BFA0A00440A4
:100F20003091FF1F2C4B10B51C681C60200704D5A6
:100F30002A4B5A6A0AB15B6A9847E10604D5274BE7
:100F40009A6A0AB19B6A9847620604D5234BDA6A0B
:100F50000AB1DB6A9847230604D5204B1A6B0AB105
:100F60001B6B9847A00604D51C4B5A6B0AB15B6BF0
:100F70009847E10704D5194BDA6B0AB1DB6B984748
:100F8000A20704D5154B9A6D0AB19B6D984763076C
:100F900004D5124BDA6D0AB1DB6D9847A00504D574
:100FA0000E4BDA6E0AB1DB6E9847E10504D50B4BA8
:100FB0001A6F0AB11B6F9847620504D5074B5A6F29
:100FC0000AB15B6F9847230504D5044B9A6F0AB1A9
:100FD0009B6F984710BD00BFA0B004403091FF1F29
:100FE0001E4B10B51C681C60E00704D51C4B9A68AA
:100FF0000AB19B689847210604D5194B5A690AB172
:101000005B699847E20604D5154B9A690AB19B695A
:101010009847630704D5124BDA690AB1DB69984730
:10102000200704D50E4B1A6A0AB11B6A9847A1071C
:1010300004D50B4B9A6B0AB19B6B9847A20604D55B
:10104000074B1A6D0AB11B6D9847630604D5044B14
:101050005A6D0AB15B6D984710BD00BFA0C0044037
:101060003091FF1F114B10B51C681C60E00404D5C3
:101070000F4BDA680AB1DB689847A10404D50C4B22
:101080001A690AB11B699847A20604D5084B1A6E63
:101090000AB11B6E9847E30606D5054BD3F88420AA
:1010A00012B1D3F88430984710BD00BFA09004401F
:1010B0003091FF1F094B10B51C681C60A20704D5B6
:1010C000074B9A6E0AB19B6E9847E30704D5044B11
:1010D000DA6F0AB1DB6F984710BD00BFA0D00440A3
:1010E0003091FF1F212830B531D8042A2FD8DFE8EE
:1010F00002F00709050B03000B2306E00A2304E0B6
:10110000082302E00C2300E00923114A114D02EBF1
:10111000C0025468104AC2F89C51104DC2F8A05148
:101120000F4DC2F8A4510F4DC2F8A8510E4DC2F890
:10113000AC5172B622680D4D22F47022226042F04A
:10114000807242EA034345F82010236062B630BD46
:10115000183F0000651000000082FF1F9D0E000078
:10116000250F0000E10F0000B51000003091FF1FB7
:10117000094B03EBC0035A6872B6136823F08773F8
:1011800023F4803343F080731360044B002243F850
:10119000202062B6704700BF183F00003091FF1F4B
:1011A000044B054900221A600A60044A10601022AC
:1011B0001A60704714D0034004D0034000D00340AD
:1011C000212810B518D80D4A52F8303093F88042D3
:1011D0003CB1012211B183F8802010BD83F80021B9
:1011E00010BD02EBC00043681A6811B142F003025F
:1011F00001E022F002021A6010BD00BF183F00009B
:10120000212806D8044B53F8303093F80002C0B2BE
:1012100070470020704700BF183F0000212816D8F3
:101220000B4A02EBC00301295B6852F8302004D15D
:1012300082F880124FF4A27208E0002082F8800247
:1012400011B94FF4807201E040F203121A60704746
:10125000183F00002DE9F04107460E46904608244D
:10126000802505EA08013846FFF7AAFF304601212C
:10127000FFF7A6FF30460021FFF7A2FF013C4FEA2F
:101280005505EED1BDE8F0812DE9F04180460F46CD
:1012900008240025802638460121FFF791FF4046AB
:1012A000FFF7AEFF00B1354338460021FFF788FF56
:1012B000013C4FEA5606EED12846BDE8F081FFFF1B
:1012C00072B60C4B0C491A680C4B1B68096862B665
:1012D000490102D5322A88BF0133C2F58C32482138
:1012E00002F23F12B2FBF1F24FF47A7000FB0320DE
:1012F000704700BF18E000E004ED00E0B891FF1F68
:1013000038B50446FFF7DCFF054664B1FFF7D8FFA8
:10131000401BB0F57A7F03D3013C04D005F57A7504
:1013200000F00AFEF2E738BD1F4B4FF4000210B583
:101330001A604FF080721A604FF000721A604FF01E
:1013400080621A604FF000621A60184B184A194CFC
:10135000002048F6FF7118605960282313609360DD
:101360001361936113629362136393630922226092
:1013700004F58054043420606160A360236144F864
:10138000042C04F5FE2420600B4801600B490B601F
:101390008B600B4B1A6000F045FF0420FFF7B0FF95
:1013A000BDE8104000F0C8BB08E100E00480034045
:1013B0000C8003400080034008800B400C800B40F1
:1013C00000800B40F0B50C4B0C4C1A7842F0020533
:1013D00004EBC50682F00102706009481A700678B5
:1013E000002E0CBF8827C82786F0010647EA014176
:1013F000067044F83510F0BD3892FF1F0080FF1FC3
:10140000C092FF1F431E052B10B510D872B6094AB3
:1014100052F8230048B1416842F82310064A018877
:1014200032F81340611A22F8131062B610BD002082
:1014300010BD00BF2092FF1F4895FF1F01380528EF
:101440000AD872B6054B53F82030002013B1013092
:101450005B68FBE762B67047002070477C92FF1F15
:1014600010B572B60123174A1A4412F8012C12075C
:101470001CD59900144A52F831402CB902EB4313A1
:1014800008305860114B09E041F0010152F8314039
:1014900064B902EBC103083058600D4B42F831309B
:1014A0000C4B1A78013A1A7062B610BD0133072B43
:1014B000D9D162B6074B00221A70BDE8104000F087
:1014C000B7BB00BF384100000080FF1F880040000C
:1014D000C8004000B692FF1F431E052B30B532D81E
:1014E000194A400140F01000104472B6174CE25CFB
:1014F000032A09D8DFE802F0160218050830022294
:1015000013E00830042210E01148124A50F823403A
:1015100014B940F8231002E052F82300416042F869
:1015200023100FE0032200E00522E25410F0080F20
:1015300001F108030A8843600CBF8823C82343EAEB
:101540000243036062B630BD0080FF1FD891FF1FC9
:101550007C92FF1F9492FF1F2DE9F84FA74F3C7814
:10156000E4B214F0040F3D4619D0A54B1B78A3B18B
:10157000A44A117801F0FF0321B1013BDBB21370E3
:1015800003B900BEA04A117801F0FF0329B1013B65
:10159000DBB213700BB900F0B3FC04233B7004F012
:1015A000080303F0FF02002B00F05C82974B984C7D
:1015B0001A78D2B215094FEA920840F0D98154F84E
:1015C000382004EBC803C2F38302013A5B680C2A9B
:1015D00000F2CB81DFE812F085018501C901C90164
:1015E000C901C901C901C901A501C901C901C901CF
:1015F0000D00884D1A685B6887486B60874B44F81C
:10160000383001232A60DFF84082037092B240F242
:10161000816000218242C8F800102161A16117D8C1
:10162000B2F5D06F80F01681B2F5817F00F0C780EF
:1016300006D8802A00F0B280822A00F0B38021E12F
:1016400040F202339A4200F0C980B2F5A06F14E074
:10165000B2F5106F14D008D8B2F5086F40F01281BF
:10166000674A6F4C1278227014E140F621139A42B7
:1016700000F0348140F621239A4200F0078101E115
:101680005F4B634EAA781A7006F1C009336A1B06D5
:1016900003D5706A083800F0CBFA08364E45F5D10C
:1016A0000026B146DFF8A4A156F80A0028B1D0F808
:1016B00004B000F0BDFA5846F8E74AF80600594B66
:1016C000DFF88CA1F05056F80A0028B1D0F804B029
:1016D00000F0AEFA5846F8E7534B4AF80600F050CF
:1016E000524B23F81900524B19F80320023A032AEF
:1016F00008D8DFE802F002040204002200E0012220
:1017000003F8092009F10109B9F1060F06F10406F1
:10171000C8D1484B00221A7001269A46464A474BC8
:101720003244334412F8012C9B0012F0080F1A7057
:101730004FEA860925D000F05DFA38B104EB461374
:10174000083058603E4B44F8393006E09AF80030D3
:1017500044F8390001338AF8003000F04BFA49F0C0
:10176000010338B104EBC302083050602B4A44F83F
:10177000332006E044F833009AF8003001338AF849
:10178000003049F00202013649F003090023072E18
:1017900044F8323044F83930C0D178E0204C217020
:1017A000617076E0AA88062A6CD81D4C21706170A1
:1017B0009100244A525C96076BD5237069E0AA8891
:1017C00002F07F03062B5DDC6B88002B5AD1910061
:1017D0001C4A0A44117821F002010DE0AA8802F0A7
:1017E0007F03062B4EDC6B88002B4BD19100154AF2
:1017F0000A44117841F00201117048E0802007404E
:10180000BF92FF1F3992FF1FE492FF1F90200740F5
:101810000080FF1FAC92FF1FC092FF1FC800400056
:10182000B792FF1FC091FF1F9492FF1F4895FF1FA3
:10183000D891FF1FB692FF1F3841000030C8011039
:1018400088004000C0200740BC91FF1F2092FF1F6E
:101850007C92FF1F6A88A9889E4B53F8084CA3F11D
:101860000C007CB133F80C6C964209D133F80A6C49
:101870008E4205D1120A032A0CBF2378038909E09E
:101880000C33EAE7944B0F221A7027E000231C4622
:1018900000E00223EE88B34238BF1E46402E34BF1C
:1018A0003546402520462946FFF78CFD761B2C4403
:1018B00003D1402D12D1354603E0402E34BF3546CA
:1018C000402520462946FFF77DFD761B2C4401D19B
:1018D000402D03D1814AC8F8004016800122804B78
:1018E00042E0804A80481168814216D151687F4A9F
:1018F000914212D11A78A92A0FD15A78452A0CD1CF
:101900009A78C22A09D1DB786B2B06D1784B00205C
:10191000052201461A70FFF755FD764B44F8383022
:1019200023E0754E3568B5B1DFF8B081B8F80090A6
:10193000B9F1400F34BF4C46402428462146FFF7FA
:1019400041FDC4EB09039BB2A8F800300BB9402C51
:1019500000D12B193360634B1A88B2F5A06F04D104
:1019600000225A709A78654B1A7001225C4B6CE029
:1019700004EBC806013D736802F00802A3F10800F9
:10198000EDB202F0FF01002A36D000F051F95C48B8
:101990005C4B50F82520EAB1516840F8251002F15F
:1019A00008017160595D03290BD8DFE801F00204DA
:1019B0000608032104E0022102E0052100E00421E1
:1019C000595516F0080F12880CBF8823C82343EA24
:1019D000024342E05A5D032A07D8DFE802F04040A4
:1019E0000204002206E0012204E016F0080F0CBFFA
:1019F000022203225A5532E054F83820120C23F800
:101A0000082C22B3DFF82CE123F8061C43F8041C51
:101A10005EF825303C4913B94EF8250002E051F834
:101A200025305860394B41F8250033F815100A4429
:101A300023F8152000F0DEF810B10830706006E0E1
:101A4000334B44F838001A7801321A7007E0294BFA
:101A5000304A16F0080F08BF134644F83830082300
:101A60003B707BE5E0071FD51D492A482A4C02231D
:101A70000B702A4B1A702A4B186098602948D8605E
:101A80001A619A615C60144B0D2018702648FF2380
:101A900003702B700274254A1370254B9F221A7015
:101AA00001230B70BDE8F88F210604D50A4B0D22E7
:101AB0001A7080232B70A20705D51B4B1A78D2B25F
:101AC0001A7002232B70E30644BF10232B70BDE86D
:101AD000F88F00BF4C410000C0200740B492FF1FA8
:101AE00094200740AC92FF1F21090003010004006D
:101AF0003992FF1FC8004000BC91FF1F982007408B
:101B00007C92FF1FD891FF1FC091FF1F4895FF1FB8
:101B1000B692FF1F88004000E091FF1F3892FF1F20
:101B20000080FF1F3C92FF1F882007408C20074049
:101B3000842007402092FF1F08B501F037FA0022E9
:101B40001A4B0021D15098180832C82A4160F7D1A9
:101B5000174A106840F48020106002F5283268327D
:101B6000C3F307201070C3F307401B0E10751376E4
:101B7000FF2302F81C3C02F8143C02F88C3C0123C1
:101B800002F8083C82F8641002F8183C094B7022F5
:101B90006FF450711A700B444FF400721A6003F125
:101BA000C04303F5C82310221A7008BD0080FF1F30
:101BB0003480044049E400E000F0DCB800F090B864
:101BC00000F0B8B800F07AB9084600F06BB90846E2
:101BD000114600F0F5B87047044B00221A714FF41B
:101BE0007A711A73024A99601A607047C492FF1F93
:101BF0003040000072B60C4A1168B1FA81F30B2B29
:101C000002D962B6002070474FF00040D84021EA68
:101C10000001116062B6054948225343C8180022EA
:101C2000CA504260704700BF6887FF1F0084FF1FD3
:101C30000C4B4822C31AB3FBF2F30B2B11D80A4A00
:101C4000127822B1094A12780AB1FFF709BC72B6BC
:101C5000074A4FF0004121FA03F31168194311605C
:101C600062B670470084FF1FB692FF1FBF92FF1F2E
:101C70006887FF1FF8B5184B1D6804460E461F46BF
:101C8000164B1B781BB30320FFF7D8FB032806D99C
:101C90003B685B1BB3421DD800F04EF9F0E7FFF73D
:101CA000A9FF03460028F3D0204603F1080204F1FF
:101CB000400150F8044B42F8044B8842F9D14024CB
:101CC0001C8003201946FFF707FC2046F8BD4FF0A3
:101CD000FF30F8BD0020F8BDB891FF1FBF92FF1F75
:101CE00038B5124B1B78EBB1114C23681BB902209D
:101CF000FFF788FB206020680D4D98B14388C2181B
:101D0000147A5CB102880133934204D3FFF790FF49
:101D100000232B6000E04380204638BDFFF788FF9A
:101D20002C60DEE74FF0FF3038BD00BFBF92FF1FD1
:101D3000E092FF1F10B50D4B1B788BB10C4C236844
:101D40001BB90220FFF75EFB2060206840B143888A
:101D500003441C7A3CB9FFF76BFF054B1C60EAE7B4
:101D60004FF0FF3010BD204610BD00BFBF92FF1FD7
:101D7000E092FF1F38B5104D2B6823B1286800246E
:101D8000028843880FE00D4B1B781BB10220FFF740
:101D900039FB28602C68002CF0D10BE0C1182144DD
:101DA000097A19B10134E1189142F7DB14B9FFF750
:101DB0003FFF2C60204638BDE092FF1FBF92FF1FFF
:101DC0002DE9F843324D012307460C462B70002CB9
:101DD0005AD0304E3368B1465BBB43F601482E4BB8
:101DE0001B7803F0FF020BB92A7018E00120FFF7FF
:101DF00025FB052804D9B8F10108284A09D10AE0D1
:101E000001232B70FFF7F6FEC9F800000028F2D07E
:101E10000FE013783BB10123137000232B704FF0B8
:101E2000FF30BDE8F8832B7000F086F801232B709B
:101E3000D5E73168194A488800231370C0F1400281
:101E4000944238BF224600F1080C10448C4448806C
:101E5000A41A934204D0F85C0CF803000133F8E7AD
:101E60001F444B883F2B0E4B02D805221A70AEE759
:101E700040220A804FF00008012083F80080FFF71D
:101E80002BFBC6F80080A2E72C702046BDE8F88343
:101E9000D492FF1FD892FF1FBF92FF1FDC92FF1F3B
:101EA000E492FF1F07B502AB012103F8010D1846AC
:101EB000FFF786FF03B05DF804FBFFFF10B50D4B85
:101EC0001B78B3B10C4B19681C4691B14B8883B198
:101ED0000A4A002010703F2B04DCCA180020107240
:101EE0000133F8E740230B800120FFF7F5FA0023C8
:101EF000236010BDBF92FF1FD892FF1FE492FF1F07
:101F000010B50B4B1B788BB90A4A11684B881446E5
:101F10003F2B04DCCA18002010720133F8E740237D
:101F20000B800120FFF7D8FA0023236010BD00BF0B
:101F3000D492FF1FD892FF1F10B50E4C2378BBB967
:101F400001232370FFF716FF08B1FFF744FE00F0EE
:101F500041FB08B100F073F800F08CFD08B100F00F
:101F6000E0F800F081FF08B100F04DF90023237084
:101F700010BD00BFE592FF1F08B50368C9B21B681A
:101F8000984708BD08B50368C9B21B68984708BDE3
:101F900008B50368C9B21B68984708BD08B503684F
:101FA000C9B21B68984708BD034800EB5100B0FB5D
:101FB000F1F000F093B900BF0044950810B5064851
:101FC00000EB51001446B0FBF1F000F087F9204619
:101FD000BDE8104000F0C8B90044950800F0EEB923
:101FE000084600F017BA00F0F5BA00F01DBB00F08B
:101FF00001BB00F0D3BA00F02FBB00F0D9BA08B58E
:10200000084600F023FA012008BD08B5084600F094
:102010001DFA012008BD10B508461446114600F00F
:102020005FFA204610BD38B508460D4601F08CFD1C
:1020300004462146284600F053FA204638BD704732
:10204000044B00221A714FF47A711A73024A996094
:102050001A607047E892FF1F5040000008B50368FF
:10206000C9B21B68984708BD08B50368C9B21B68A8
:10207000984708BD08B50368C9B21B68984708BDF2
:1020800008B50368C9B21B68984708BD034800EB50
:102090005100B0FBF1F000F071BB00BF00449508A7
:1020A00010B5064800EB51001446B0FBF1F000F00B
:1020B00065FB2046BDE8104000F0A6BB0044950833
:1020C00000F0CCBB084600F0F5BB00F0D3BC00F03C
:1020D000FBBC00F0DFBC00F0B1BC00F00DBD00F0B7
:1020E000B7BC08B5084600F001FC012008BD08B5E2
:1020F000084600F0FBFB012008BD10B50846144659
:10210000114600F03DFC204610BD38B508460D468E
:1021100001F01AFD04462146284600F031FC204615
:1021200038BD7047044B00221A714FF47A711A734C
:10213000024A99601A607047F892FF1FA0400000A1
:1021400008B50368C9B21B68984708BD08B503689D
:10215000C9B21B68984708BD08B50368C9B21B68B7
:10216000984708BD08B50368C9B21B68984708BD01
:10217000034800EB5100B0FBF1F000F04FBD00BF91
:1021800000A24A0410B5064800EB51001446B0FB0B
:10219000F1F000F043FD2046BDE8104000F080BDA6
:1021A00000A24A0400F0A6BD084600F0CFBD00F032
:1021B0005BBE00F083BE00F067BE00F039BE00F0E9
:1021C00095BE00F03FBE08B5084600F0DBFD0120DB
:1021D00008BD08B5084600F0D5FD012008BD10B5C2
:1021E00008461446114600F017FE204610BD38B5CB
:1021F00008460D4601F0A8FC04462146284600F09A
:102200000BFE204638BD7047044B00221A714FF474
:102210007A711A73024A99601A6070470893FF1F17
:10222000F040000010B5204B2048214960221A7070
:10223000E1225A701F4B204A1C78204B082C01D1F8
:10224000012402E00A2C03D119240460132005E0C4
:102250000C2C0CBF15243D2404601220086014606F
:102260001860174B17491B78174A03B101230B60FD
:102270001360164B164A1978164B012901D8802194
:102280000BE0042901D8842107E0082901D8852121
:1022900003E0102994BF86218721116019600E4B3D
:1022A00001221A7010BD00BF0040074008B0034073
:1022B0000CB003406C87FF1F08B00B400CB00B4004
:1022C0001993FF1F20B0034020B00B406D87FF1F04
:1022D00024B0034024B00B401893FF1F194B1A6819
:1022E00042F480621A60184A00231370174A137070
:1022F000174A1370174A1370174A1370174B40F29E
:1023000013321A604FF451725A60154BC0F34432C5
:102310001A70C0F347125A700221042200F01F0005
:1023200098729A70D9745A7588221A743C22DA709D
:102330000C4B40226FF44A711A700B444FF4005258
:102340001A607047348004409C93FF1F1B93FF1F4B
:10235000A493FF1F9D93FF1F1A93FF1F40A00440EB
:1023600000A006402DE400E0134A937800F003013A
:1023700003F0EC030B43410748BF43F01003937095
:1023800000F00F03042B0C4903D18B7943F0400379
:102390008B715379C20603F0EF03074A48BF43F03D
:1023A000100353719379810603F0EF0348BF43F0A4
:1023B00010039371704700BF00A0064008B50E4B94
:1023C0001B685B0500D408BD0C4B1A7802F0FF03B4
:1023D00012B1FFF7B1FDF7E7094A4FF40051116060
:1023E000084A0949D37040F203120A604A60074A5A
:1023F0001370074A137008BD348004401A93FF1FFE
:1024000084E100E000A0064040A004409C93FF1F30
:102410001B93FF1F38B50446094B1B7803F0FF05DB
:10242000002BF9D120460121FEF7F8FE204629466F
:10243000FEF7C6FE034B53F83420034B1A6038BD39
:102440001A93FF1F183F0000A093FF1FF8B51D4B04
:102450001B685A05064633D51B4B1B680BB101227E
:102460001A701A4B1C780134402C1F4628BF0024D8
:10247000174D2B78A34218D1FEF7D2FC40280FDC71
:10248000144A13791B06F3D52B7813490133402BDB
:1024900028BF0023C95CDBB2C9B2D1712B70E7E75A
:1024A000FF28E5DDFFF748FDE2E70B4BF6B21E55CE
:1024B0000A4B01221A70074BE4B2BC223C70DA705E
:1024C000F8BD00BF34800440A093FF1FA493FF1FFA
:1024D0009D93FF1F00A006401C93FF1F1A93FF1F30
:1024E000274B1B685A052DE9F04707468A4644D515
:1024F000244B1B680BB101221A703D4607EB0A03FF
:102500009D4237D2DFF890801F4E98F8004096F831
:1025100000900134402C28BF00245FFA89F9A145BE
:102520001DD11A4BBC22DA70FEF77AFC40280FDC72
:10253000164A13791B060FD5337815490133402B02
:1025400028BF0023C95CDBB2C9B2D171337003E08C
:10255000FF2801DDFFF7F0FC33784B45E4D00C4B4E
:1025600015F8012B1A550B4B0122E4B21A7088F8AA
:102570000040C3E7054BBC22DA70BDE8F08700BF1E
:1025800034800440A093FF1F9D93FF1F00A00640CE
:102590001C93FF1F1A93FF1FA493FF1F08B5034B43
:1025A0001B7813B1FFF7C8FCF9E708BD1A93FF1FAA
:1025B000064A074B1B781078DBB2C0B283422CBFAF
:1025C0003F3000F1FF30C01A704700BF9D93FF1FDE
:1025D000A493FF1F054B1878054B1B78C0B2DBB2E4
:1025E000984238BF4030C01A704700BF9C93FF1F0D
:1025F0001B93FF1F094B0A4A19781378DBB29942E3
:1026000008D00133402B28BF00230649C85CDBB249
:10261000137070474FF0FF30704700BF9C93FF1F4F
:102620001B93FF1F5C93FF1F084B1A78084B1B7806
:10263000DBB29A4207D00133402B28BF0023054A62
:10264000D05CC0B270474FF0FF3070479C93FF1FC3
:102650001B93FF1F5C93FF1F0A4B1B685B050FD585
:10266000094BDA7802F0CB02DA7040225A74DA7839
:1026700042F03402DA70054B1A78054BD2B21A7068
:10268000704700BF3480044000A006401B93FF1F2A
:102690009C93FF1F30B5304B1A7912F0300F23D0C6
:1026A00072B69A7D02F0FF0122B9DA7940225A749B
:1026B00062B619E062B6294B29481A780478D2B27A
:1026C000E4B21846244BDD79531C402B28BF00236D
:1026D000A342EDB202D0234AD5541A464B1E13F042
:1026E000FF01EFD1D2B202701B4BD978C9B20C06F0
:1026F00020D51B7918061DD51B4B1C4A1D78137855
:10270000EDB2DBB21046AB420CD0134A0133402B82
:102710001479174C28BF0023E45CE4B2D471127D15
:10272000072AF0D9DBB203700B4B1A79120644BFAB
:102730007C22DA704B060ED5074B1A7912F0400F47
:10274000194608D00B4B00221A700B4B1B6803B1C3
:102750001A703C23CB7030BD00A006409C93FF1F35
:102760001B93FF1F5C93FF1FA493FF1F9D93FF1FED
:102770001C93FF1F1A93FF1FA093FF1F194B1A688A
:1027800042F400621A60184A00231370174A13704B
:10279000174A1370174A1370174A1370174B40F2F9
:1027A00013321A604FF451725A60154BC0F3443221
:1027B0001A70C0F347125A7000F01F000422022161
:1027C00098729A70D9745A7588221A743C22DA70F9
:1027D0000C4B40221A70A3F22B334FF400421A60C4
:1027E000704700BF348004400F94FF1FA693FF1F63
:1027F0001894FF1F1094FF1FA593FF1F0CB00440F7
:1028000000B006402FE400E0134A937800F0030183
:1028100003F0EC030B43410748BF43F010039370F0
:1028200000F00F03042B0C4903D18B7943F04003D4
:102830008B715379C20603F0EF03074A48BF43F098
:10284000100353719379810603F0EF0348BF43F0FF
:1028500010039371704700BF00B0064008B50E4BDF
:102860001B681B0500D408BD0C4B1A7802F0FF034F
:1028700012B1FFF761FBF7E7094A4FF4004111601D
:10288000084A0949D37040F203120A604A60074AB5
:102890001370074A137008BD34800440A593FF1FCE
:1028A00084E100E000B006400CB004400F94FF1F2C
:1028B000A693FF1F38B50446094B1B7803F0FF05AC
:1028C000002BF9D120460121FEF7A8FC204629461D
:1028D000FEF776FC034B53F83420034B1A6038BDE7
:1028E000A593FF1F183F00001494FF1FF8B51D4B60
:1028F0001B681A05064633D51B4B1B680BB101221A
:102900001A701A4B1C780134282C1F4628BF00244B
:10291000174D2B78A34218D1FEF782FA40280FDC1E
:10292000144A13791B06F3D52B7813490133282B4E
:1029300028BF0023C95CDBB2C9B2D1712B70E7E7B5
:10294000FF28E5DDFFF7F8FAE2E70B4BF6B21E557C
:102950000A4B01221A70074BE4B2BC223C70DA70B9
:10296000F8BD00BF348004401494FF1F1894FF1F6B
:102970001094FF1F00B00640A793FF1FA593FF1FF1
:10298000274B1B681A052DE9F04707468A4644D5B0
:10299000244B1B680BB101221A703D4607EB0A035A
:1029A0009D4237D2DFF890801F4E98F8004096F88D
:1029B00000900134282C28BF00245FFA89F9A14532
:1029C0001DD11A4BBC22DA70FEF72AFA40280FDC20
:1029D000164A13791B060FD5337815490133282B76
:1029E00028BF0023C95CDBB2C9B2D171337003E0E8
:1029F000FF2801DDFFF7A0FA33784B45E4D00C4BFC
:102A000015F8012B1A550B4B0122E4B21A7088F805
:102A10000040C3E7054BBC22DA70BDE8F08700BF79
:102A2000348004401494FF1F1094FF1F00B0064030
:102A3000A793FF1FA593FF1F1894FF1F08B5034B13
:102A40001B7813B1FFF778FAF9E708BDA593FF1FCC
:102A5000064A074B1B781078DBB2C0B283422CBF0A
:102A6000273000F1FF30C01A704700BF1094FF1FDD
:102A70001894FF1F054B1878054B1B78C0B2DBB2CA
:102A8000984238BF4030C01A704700BF0F94FF1FF4
:102A9000A693FF1F094B0A4A19781378DBB29942B3
:102AA00008D00133402B28BF00230649C85CDBB2A5
:102AB000137070474FF0FF30704700BF0F94FF1F37
:102AC000A693FF1FCF93FF1F084B1A78084B1B7864
:102AD000DBB29A4207D00133402B28BF0023054ABE
:102AE000D05CC0B270474FF0FF3070470F94FF1FAB
:102AF000A693FF1FCF93FF1F0A4B1B681B050FD523
:102B0000094BDA7802F0CB02DA7040225A74DA7894
:102B100042F03402DA70054B1A78054BD2B21A70C3
:102B2000704700BF3480044000B00640A693FF1FEA
:102B30000F94FF1F30B5304B1A7912F0300F23D0AD
:102B400072B69A7D02F0FF0122B9DA7940225A74F6
:102B500062B619E062B6294B29481A780478D2B2D5
:102B6000E4B21846244BDD79531C402B28BF0023C8
:102B7000A342EDB202D0234AD5541A464B1E13F09D
:102B8000FF01EFD1D2B202701B4BD978C9B20C064B
:102B900020D51B7918061DD51B4B1C4A1D781378B0
:102BA000EDB2DBB21046AB420CD0134A0133282BF6
:102BB0001479174C28BF0023E45CE4B2D471127D71
:102BC000072AF0D9DBB203700B4B1A79120644BF07
:102BD0007C22DA704B060ED5074B1A7912F0400FA3
:102BE000194608D00B4B00221A700B4B1B6803B11F
:102BF0001A703C23CB7030BD00B006400F94FF1F0D
:102C0000A693FF1FCF93FF1F1894FF1F1094FF1F61
:102C1000A793FF1FA593FF1F1494FF1F174B1A685C
:102C200042F480521A60164A00231370154A13703A
:102C3000154A1370154A1370154A1370154A40F25D
:102C4000133111604FF451715160134AC0F3443194
:102C50001170C0F3471100F01F0051709072937013
:102C600013742C23D3700D4B40226FF44B711A70E8
:102C70000B444FF400321A60704700BF34800440A8
:102C80008394FF1F1A94FF1F8C94FF1F8494FF1FCF
:102C90001994FF1F08C0044000C0064031E400E062
:102CA000134A937800F0030103F0EC030B43410750
:102CB00048BF43F01003937000F00F03042B0C493E
:102CC00003D18B7943F040038B715379C20603F033
:102CD000EF03074A48BF43F010035371937981060D
:102CE00003F0EF0348BF43F010039371704700BF38
:102CF00000C0064008B50E4B1B68DB0400D408BDBD
:102D00000C4B1A7802F0FF0312B1FFF715F9F7E741
:102D1000094A4FF400311160084A0949D37040F262
:102D200003120A604A60074A1370074A137008BD0D
:102D3000348004401994FF1F84E100E000C0064085
:102D400008C004408394FF1F1A94FF1F38B504463F
:102D5000094B1B7803F0FF05002BF9D12046012118
:102D6000FEF75CFA20462946FEF72AFA034B53F891
:102D70003420034B1A6038BD1994FF1F183F000020
:102D80008894FF1FF8B51D4B1B68DA04064633D53F
:102D90001B4B1B680BB101221A701A4B1C780134B3
:102DA000282C1F4628BF0024174D2B78A34218D18A
:102DB000FEF736F840280FDC144A13791B06F3D5CA
:102DC0002B7813490133282B28BF0023C95CDBB2C1
:102DD000C9B2D1712B70E7E7FF28E5DDFFF7ACF84A
:102DE000E2E70B4BF6B21E550A4B01221A70074B55
:102DF000E4B2AC223C70DA70F8BD00BF348004400D
:102E00008894FF1F8C94FF1F8494FF1F00C006400E
:102E10001B94FF1F1994FF1F38B504464518AC4298
:102E200004D014F8010BFFF7ADFFF8E738BDFFFF42
:102E300008B5034B1B7813B1FFF77EF8F9E708BD1F
:102E40001994FF1F064A074B1B781078DBB2C0B2FB
:102E500083422CBF273000F1FF30C01A704700BFFB
:102E60008494FF1F8C94FF1F054B1878054B1B782B
:102E7000C0B2DBB2984238BF4030C01A704700BFC2
:102E80008394FF1F1A94FF1F094B0A4A197813787D
:102E9000DBB2994208D00133402B28BF00230649FA
:102EA000C85CDBB2137070474FF0FF30704700BF53
:102EB0008394FF1F1A94FF1F4394FF1F084B1A7837
:102EC000084B1B78DBB29A4207D00133402B28BF56
:102ED0000023054AD05CC0B270474FF0FF30704706
:102EE0008394FF1F1A94FF1F4394FF1F024B1A780D
:102EF000024BD2B21A7070471A94FF1F8394FF1FBF
:102F000010B5214B1A7992060FD5204AD87913783B
:102F10001F490133402B097828BF00238B42C0B2E0
:102F200003D01C49C854DBB21370174AD178C9B218
:102F30000C0616D51379180613D5174B17481C78AD
:102F40000378DBB29C4202D16C23D37009E00133D9
:102F5000282B28BF0023124CE45CDBB2E4B2D4710E
:102F600003704B060ED5084B1A7912F0400F194624
:102F700008D00C4B00221A700B4B1B6803B11A705F
:102F80002C23CB7010BD00BF00C006408394FF1FF0
:102F90001A94FF1F4394FF1F8C94FF1F8494FF1FFC
:102FA0001B94FF1F1994FF1F8894FF1F1FB572B653
:102FB000154B70221A70154A412111700F2102F829
:102FC000011C80221A701A781206FCD5104B186862
:102FD00062B6104B984298BF0A2301AC98BF584381
:102FE00021460A22FDF73CFF0023E15C0A4A29B191
:102FF00002EB430001330A2B4180F6D101335B0021
:10300000137004B010BD00BF000002400700024072
:10301000080002407F9698004888FF1F044BD8782C
:10302000044B1A68C0B2904218BF1860704700BFC6
:10303000006006406088FF1F08B5FFF7EFFF8307B9
:10304000FBD5024B0222DA7008BD00BF00600640CB
:10305000094B1B7813B9094B1B782BB1084A13781D
:10306000202B03D90123037100207047581C1070D6
:10307000044A0120D1547047F294FF1FB594FF1FFA
:10308000F394FF1F9494FF1F7047FFFF024B1878C3
:10309000024B1B78C01A7047F194FF1FF094FF1F7A
:1030A000064A074913780978994204D9591C1170C6
:1030B000044AD05C70474FF0FF307047F094FF1F18
:1030C000F194FF1FB694FF1F054B064A1B78127838
:1030D0009A4286BF044AD05C4FF0FF30704700BF71
:1030E000F094FF1FF194FF1FB694FF1F70B50E4BB5
:1030F0001B78144613B90D4B1B7893B10C4A157805
:10310000C5F121039C42164602D9012202711C46D8
:103110000848224628442544FDF7B2FD3570204674
:1031200070BD184670BD00BFF294FF1FB594FF1F1D
:10313000F394FF1F9494FF1F10B5114BDB7803F03D
:10314000200303F0FF045BB91220FEF711F80D4BCA
:103150001B68A3B10C4A14700C4A1078984710BD34
:103160000B4A13780133DBB2012B137002D8094BE1
:103170001B7823B91220BDE81040FDF7F9BF10BD40
:10318000006006409094FF1FF094FF1FF194FF1F12
:10319000DC94FF1FB594FF1F002202714FF47A7177
:1031A0000273024A81600260704700BFD041000094
:1031B0000C4B00221A700C4B196841F04001196049
:1031C0000A4B0B499A704FF419720A6041F8042CAB
:1031D00028225A7003229A7120225A7180229A70F2
:1031E000704700BFB594FF1F348004400060064064
:1031F0000CA0044010B53649CB78DBB213F0100FA9
:1032000003F0400201D12AB92CE01020C870002A36
:10321000F9D110BD03F0040303F0FF012D4AC3B13F
:10322000002313702C4A13702C4B1B68144603B1F7
:10323000984723782A4A1BB9274913700120087040
:10324000234BD021997012781A71264B01221A70E3
:1032500039E001231370244B19701D4BC0229A7062
:103260001B7930E01A4CA27802F0100202F0FF0144
:10327000AAB113F001030ED11A4917480A78007851
:10328000904203D9531C0B70154B9B5C2371104B60
:10329000D0229A7017E0C023A370237913E0134B58
:1032A0000322197012201249FDF71CFF0E4A2179E2
:1032B00013781F2BC9B206D80648007818B1581CDD
:1032C00010700C4AD154024B0222DA7010BD00BFBC
:1032D000006006408D94FF1FF394FF1FD894FF1FDA
:1032E0009494FF1FF494FF1FF194FF1FDC94FF1FC1
:1032F00039310000B694FF1F044B054A490019708C
:1033000001231370034A1370704700BF9494FF1F8A
:10331000F294FF1FF394FF1FF8B52B4B1222DA70C3
:103320009A7892060F4601D5B42218E0274B1C6804
:103330001D46FFF773FE00F0200000F0FF0350B1C0
:103340002B681B1B0F2BF4D91F4B00229A70802275
:103350009A700420F8BD1E4A13701B4BB0229A705D
:10336000FFF75CFE8306FBD500251A4B1B78ECB2F9
:10337000A3421FD9184B1A5D134B1A71FFF74EFE6B
:10338000860701D48006F9D40F4E0223F370FFF7AD
:1033900045FEC10601D4820603D48023B370042005
:1033A00009E0C30705F10105DFD5002C0CBF0220A1
:1033B000032001E0002017B1034B80229A70074BD5
:1033C00000221A70F8BD00BF00600640B891FF1FD0
:1033D000B594FF1FF394FF1F9494FF1FF294FF1FF7
:1033E0002DE9F8431446304A1F46002313702F4A34
:1033F00013702F4B0D461221D970997811F0200FC0
:10340000904601D0B4220BE0FFF708FE00F0200048
:1034100000F0FF020028F7D1264B1A70244BB0228F
:103420009A706B0043F00103214DDBB22B71FFF763
:1034300003FEFFF7F3FD10F0110004D08023AB7002
:103440000020BDE8F88334B9002F0CBFA0238023EF
:10345000AB70BDE8F883012C0CBFA823A023AB7090
:103460002B79DFF858902646012E114D0BD0013EE6
:10347000FFF7E2FDF6B2012E04BFA823AB702B7953
:1034800009F8013FF0E7FFF7D7FD661EB023AB70E8
:10349000F6B2094B2A799A550FB18023AB7088F8A0
:1034A00000402046BDE8F883F094FF1FF194FF1F11
:1034B00000600640B594FF1FB694FF1FB594FF1F30
:1034C0000123FFF78DBF0121FFF726BF0148FFF75A
:1034D00063BE00BFE094FF1F164B1A6842F480528F
:1034E0001A60154B154A1A60154ADA6002F18042DB
:1034F0001A61144A1A60144B1B78DA0755BF134A35
:10350000134A4FF410714FF4007113F0020F116061
:103510000CBF104910495B074FF4007254BF0F4BAA
:103520000F4B0A6054BF4FF410724FF400721A60D0
:10353000704700BF3C80044000C0024001401F00B3
:103540000110003800001F801195FF1F18B00440C3
:1035500008C004401CB004400CC0044014B0044037
:1035600004C0044003460846194600F001B800BFF5
:1035700010B40C4613460146224602205DF8044B67
:1035800000F012BB70B50F4E0F4D761BB61007D072
:10359000043D0024013455F8043F9847A642F9D170
:1035A0000A4E0B4D761B00F069FEB61008D0043DA4
:1035B0000024013455F8043F9847A642F9D170BD64
:1035C00070BD00BF8842000088420000AC4200008D
:1035D00088420000024B0146186800F003B800BFA3
:1035E000908CFF1F2DE9F04F01F10B05162D83B0D4
:1035F000064627D935F0070527D4A94225D83046F5
:1036000000F08CFAB5F5FC7F26D2C14F4FEAD50CFD
:1036100007EBCC03DC689C4200F0D2816368E2686F
:10362000A16823F00303234430465D68CA6045F077
:10363000010591605D6000F073FA0834204603B024
:10364000BDE8F08F1025A942D9D900240C232046CB
:10365000336003B0BDE8F08F5FEA552C00F08A803C
:10366000BCF1040F00F260814FEA951C0CF1380C9C
:103670004FEA4C01A64F07EB8101CC68A14205D16E
:103680000CE0002B7ADAE468A14207D0626822F0ED
:103690000302531B0F2BF4DD0CF1FF3C0CF1010C6A
:1036A0009B4B3C6903F1080E744500F07E81616814
:1036B00021F003014A1B0F2A00F36481002AC3F89A
:1036C00014E0C3F810E06ADAB1F5007F80F03A81C7
:1036D000C90803EBC1004FEAA1085A688168A160DC
:1036E0004FF0010909FA08F848EA0202E0605A605E
:1036F0008460CC604FEAAC030120984090425BD8D4
:10370000024206D12CF0030C400002420CF1040CE2
:10371000FAD007EBCC084446E146E3689C4207D167
:1037200045E1002A80F25681DB689C4200F03F812F
:10373000596821F003014A1B0F2AF2DD1C46D3F819
:103740000CC054F8088F591945F0010942F00105E1
:10375000C3F804903046C8F80CC0CCF808807961F2
:103760003961C1F80CE0C1F808E04D608A5000F002
:10377000D7F963E77E214FF03F0C7BE72244E368F3
:103780005068A16840F00105CB60304699605560F3
:1037900000F0C6F90834204603B0BDE8F08F21449C
:1037A00030464B6843F001034B6000F0B9F9083430
:1037B000204603B0BDE8F08FBC68636823F00309BE
:1037C000A94504D3C5EB09030F2B00F39180514B9E
:1037D000514A19681368013305EB010A04EB090B20
:1037E00000F061810AF5805A0AF10F0A2AF47F6A13
:1037F0002AF00F0A30465146019200F093F9B0F1D9
:10380000FF3F8046019A00F00081834500F2FA8074
:10381000DFF810C1DCF80030C3455344CCF8003069
:1038200000F04A8112683C4901321BBFCBEB080B08
:103830005B44C1F80080CCF8003018F0070300F0BA
:103840001381C3F10802C3F5805390440833C24486
:10385000CAF30B0ACAEB030A51463046CDF804C03E
:1038600000F060F9431CDDF804C000F03581C8EBBE
:103870000002524442F00102DCF80030C7F8088030
:103880005344BC42C8F80420CCF80030DFF894A0C0
:1038900015D0B9F10F0F40F2EA806168A9F10C026E
:1038A00022F0070201F0010EA118052042EA0E0ED7
:1038B0000F2AC4F804E04860886000F21181174ABA
:1038C000BC6811688B4288BF1360154A11688B422F
:1038D00088BF1360626822F003029542C5EB0203C1
:1038E00001D80F2B04DC304600F01AF90024A5E6BD
:1038F000621943F0010345F0010565603046BA6086
:10390000536000F00DF90834204603B0BDE8F08F95
:10391000948CFF1F1C95FF1FA090FF1F1895FF1F81
:103920001495FF1F2095FF1FBCF1140F61D9BCF146
:10393000540F00F28F804FEA153C0CF16E0C4FEAE9
:103940004C0197E64B0A042B58D9142B00F2AE8099
:1039500003F15B02500007EB8000DFF8BC81836855
:10396000834200F08A805A6822F00302914202D218
:103970009B689842F7D1D9687A68E160A3608C604F
:10398000DC60B7E6611942F0010745F001056560AA
:10399000304659611961C1F80CE0C1F808E04F6088
:1039A0008A50083400F0BCF848E65A68A2E609F1EB
:1039B000010919F0030F04F108047FF4AEAE2DE005
:1039C00004F108036469A34208BF0CF1020C3FF440
:1039D00067AE23E619441C464868DB6854F8082F94
:1039E00040F001054D603046D3609A6000F098F8D1
:1039F00024E60CF15B0C4FEA4C013BE68A093832B5
:103A00005000A8E7BC423FF403AFBC68626822F0F4
:103A1000030262E7D8F8008098457BD11CF0030FC1
:103A2000A8F108030CF1FF3CF4D17B6823EA000302
:103A30007B60400098423FF6BFAE00283FF4BCAE2A
:103A40000342CC467FF465AE400003420CF1040C07
:103A5000FAD05EE6BCF5AA7F1AD84FEAD53C0CF145
:103A6000770C4FEA4C0105E64FF48053EFE6012353
:103A7000C8F80430444600222FE791100120D8F8FE
:103A8000042000FA01F10A43C8F80420194674E73B
:103A900040F254539C451BD84FEA954C0CF17C0CDA
:103AA0004FEA4C01E6E50AF1100AA3E6542B1FD8B1
:103AB0000A0B6E3250004EE7CBF30B0100297FF466
:103AC000B1AE0AEB0901BA6841F001015160F6E6B6
:103AD000FC214FF07E0CCDE501224FF0000ACBE631
:103AE00004F10801304600F029F9DAF80030E6E682
:103AF000B3F5AA7F03D8CA0B773250002BE740F208
:103B00005452934203D88A0C7C32500023E7FC20A5
:103B10007E2220E77B688CE7948CFF1F704700BFF4
:103B2000704700BF38B5074C0023054608462360A0
:103B3000FDF76EF9431C00D038BD2368002BFBD085
:103B40002B6038BD5495FF1F20F0030110F00300D7
:103B5000C0F1000051F8043B00F1040C4FEACC0C1A
:103B60006FF000021CBF22FA0CF213434FF0010C5D
:103B70004CEA0C2C4CEA0C4CA3EB0C0222EA03029C
:103B800012EACC1204BF51F8043B0430F4D013F015
:103B9000FF0F1FBF013013F47F4F013013F47F0F6D
:103BA00018BF0130704700BFF0B5274C2668D6F823
:103BB000484185B00746002C41D065681F2D1EDDA9
:103BC000224818B94FF0FF3005B0F0BD4FF4C8706F
:103BD000039102920193FFF7FDFC0399029A019B66
:103BE00004460028EED0D6F84851256000206060D9
:103BF0000546C6F84841C4F88801C4F88C013FB9AD
:103C0000AB1C00200135656044F8231005B0F0BD01
:103C100004EB85004FF0010CC0F88820D4F88861CF
:103C20000CFA05F21643022FC4F88861C0F8083177
:103C3000E6D1D4F88C311A43C4F88C21E0E706F5BC
:103C4000A674C6F84841B8E778420000D5350000B0
:103C5000024B13B1024800F005B8704700000000A5
:103C6000713C00000146002002460346FFF79CBF5E
:103C700038B5094D094C641BA41018BF05EB840529
:103C800005D0013C55F8043D9847002CF9D1BDE81A
:103C9000384000F00BBB00BF000000000000000037
:103CA000F8B5234D0F460446FFF738FFAB685E6852
:103CB00026F00306F11B01F6EF7121F47F6121F07C
:103CC0000F01A1F58057B7F5805F07DB2046002183
:103CD000FFF728FFAB683344984204D02046FFF733
:103CE0001FFF0020F8BD20467942FFF71BFF01307F
:103CF0000DD0104BAA681968F61B46F00106204645
:103D0000C91B56601960FFF70BFF0120F8BD204664
:103D10000021FFF707FFAB68C21A0F2ADEDD064D50
:103D200004492D6842F00102401B5A600860D5E743
:103D3000948CFF1F2095FF1FA090FF1F2DE9F041DD
:103D40000D460646002955D0FFF7E8FE55F8041C3D
:103D5000DFF874C121F00103A5F10804E218DCF8D2
:103D600008005768904227F0030769D011F001015D
:103D7000576032D00021D0194068C00706D43B44B8
:103D8000906800294ED0D268C260906043F0010272
:103D90006260E350E1B9B3F5007F2DD35A0A042ADB
:103DA0006AD89809383041000CEB810C4649DCF8A0
:103DB0000820624566D0516821F003018B4202D28F
:103DC00092689445F7D1D368E360A2609C60D460A8
:103DD0003046BDE8F041FFF7A3BE55F8085C641B10
:103DE0000CF10808A06840452B4443D0E568C56045
:103DF000A860C0E7BDE8F081DB080CEBC302012539
:103E0000DCF804009168A1609B1005FA03F31843E5
:103E1000E260CCF8040094603046CC60BDE8F0412C
:103E2000FFF77EBE294DA842ADD143F00102CCF888
:103E30001440CCF81040E060A0606260E350C7E737
:103E40001F44CB0707D455F8083CE41A1F44A26866
:103E5000E368D3609A601E4B1B6847F001029F42E3
:103E60006260CCF80840B3D31A4B30461968FFF7AC
:103E700017FFADE701217EE7142A0CD802F15B00A1
:103E8000410091E74B688010012505FA00F00343DB
:103E90004B60134698E7542A03D8180B6E30410044
:103EA00082E7B2F5AA7F03D8D80B773041007BE7D1
:103EB00040F254518A4203D8980C7C30410073E799
:103EC000FC217E2070E700BF948CFF1F9C8CFF1F9D
:103ED0009C90FF1F1C95FF1F466F72776172642DC7
:103EE000736964652053544D5045206E6F7420668D
:103EF0006F756E642100526576657273652D736906
:103F000064652053544D5045206E6F7420666F7564
:103F10006E64210020000D0A4008FE4340A00440CA
:103F20004408FE4344A004400018FE4300C004407F
:103F30003000FE43309004403400FE43349004408F
:103F40001C18FE431CC004401018FE4310C004405F
:103F50000818FE4308C004400C18FE430CC004407F
:103F60000C10FE430CB004401010FE4310B004408F
:103F70001810FE4318B004401C10FE431CB004404F
:103F80001410FE4314B004400418FE4304C004405F
:103F90000010FE4300B004400008FE4300A00440AF
:103FA0000408FE4304A004400C08FE430CA0044097
:103FB0000808FE4308A004401418FE4314C004403F
:103FC0001818FE4318C004400410FE4304B0044017
:103FD0000810FE4308B004401400FE43149004404F
:103FE0004C08FE434CA004400420FE4304D004408F
:103FF0002410FE4324B004402010FE4320B00440AF
:104000002810FE4328B004402C10FE432CB004407E
:104010000020FE4300D004404808FE4348A004406E
:104020001000FE431090044000000000000000005B
:10403000C91B0000CF1B0000B91B0000BD1B000006
:10404000C11B0000C51B00000000000000000000B4
:10405000FF1F000017200000E71F0000EF1F0000F7
:10406000EB1F0000F31F0000A91F0000BD1F000090
:10407000DD1F0000E11F0000F71F0000FB1F000014
:10408000791F0000851F0000911F00009D1F000088
:10409000272000000B2000000000000000000000AE
:1040A000E3200000FB200000CB200000D320000014
:1040B000CF200000D72000008D200000A1200000AC
:1040C000C1200000C5200000DB200000DF20000030
:1040D0005D200000692000007520000081200000A4
:1040E0000B210000EF200000000000000000000095
:1040F000C7210000DF210000AF210000B721000030
:10410000B3210000BB2100007121000085210000C7
:10411000A5210000A9210000BF210000C32100004B
:10412000412100004D2100005921000065210000BF
:10413000EF210000D3210000151915190000FFFF21
:10414000000100006E87FF1F120000000002000047
:104150009887FF1F4900000000220100E187FF1F30
:104160002100000000210100CA87FF1F0900000094
:10417000002200000288FF1F1C0000000021000038
:10418000AA87FF1F09000000000300004488FF1FEA
:1041900000000000010309048087FF1F00000000E9
:1041A000020309041E88FF1F000000000303090426
:1041B0004888FF1F00000000000000000000000011
:1041C00000000000FFFFFFFF0000000000000000F3
:1041D00051300000ED3000008D300000A1300000B3
:1041E000C93000008930000002000300040005000F
:1041F000060008000A000C0010001400180020003F
:1042000028003800400060008000C00000018001EC
:10421000000280020003FFFF000000800000018018
:1042200000000000000002800000010001100000FA
:104230000000020001100100032000000100020044
:1042400003200100043000000320020003200300CB
:104250000540000005400100065000000650010026
:10426000076000000760010008700000076002009E
:1042700008700100430000006888FF1FF8B500BF08
:10428000F8BC08BC9E467047513C00003504000055
:10429000010600009D0B0000D91B0000412000001A
:0C42A0002521000009220000CD340000A0
:0442AC00F8B500BFA2
:0842B000B4F2FF7F01000000E1
:1042B800000000005895FF1FFFFFFFFF0A041201CE
:1042C800000200000040C01686040001010203013C
:1042D80018035400650065006E00730079006400DF
:1042E800750069006E006F0009024900020100C0F4
:1042F8003209040000020300000009211101000135
:10430800221C000705830340000107050403400041
:104318000109040100020300000009211101000144
:104328002221000705810340000107050203200040
:104338000206C9FF0904A15C7508150026FF00954F
:10434800400975810295200976910295040976B194
:1043580002C006ABFF0A0002A1017508150026FF7E
:1043680000954009018102954009029102C0260387
:104378005400650065006E007300790064007500E4
:1043880069006E006F00200052006100770048004D
:1043980049004400040309040C0300000000000065
:1043A8000000000000000000000000000000000005
:1043B800FFFF00000000000000000000548BFF1FFA
:1043C800BC8BFF1F248CFF1F0000000000000000B2
:1043D80000000000000000000000000000000000D5
:1043E800000000000000000000000000744200000F
:1043F80000000000000000000000000000000000B5
:1044080000000000000000000000000000000000A4
:104418000000000000000000000000000000000094
:104428000000000000000000000000000000000084
:104438000000000000000000000000000000000074
:104448000000000000000000000000000000000064
:104458000000000000000000000000000000000054
:1044680001000000000000000E33CDAB34126DE6F1
:10447800ECDE05000B00000000000000000000005A
:104488000000000000000000000000000000000024
:104498000000000000000000000000000000000014
:1044A8000000000000000000000000000000000004
:1044B80000000000000000000000000000000000F4
:1047E8006888FF1F0000000000000000948CFF1F75
:1047F800948CFF1F9C8CFF1F9C8CFF1FA48CFF1F99
:10480800A48CFF1FAC8CFF1FAC8CFF1FB48CFF1F48
:10481800B48CFF1FBC8CFF1FBC8CFF1FC48CFF1FF8
:10482800C48CFF1FCC8CFF1FCC8CFF1FD48CFF1FA8
:10483800D48CFF1FDC8CFF1FDC8CFF1FE48CFF1F58
:10484800E48CFF1FEC8CFF1FEC8CFF1FF48CFF1F08
:10485800F48CFF1FFC8CFF1FFC8CFF1F048DFF1FB7
:10486800048DFF1F0C8DFF1F0C8DFF1F148DFF1F64
:10487800148DFF1F1C8DFF1F1C8DFF1F248DFF1F14
:10488800248DFF1F2C8DFF1F2C8DFF1F348DFF1FC4
:10489800348DFF1F3C8DFF1F3C8DFF1F448DFF1F74
:1048A800448DFF1F4C8DFF1F4C8DFF1F548DFF1F24
:1048B800548DFF1F5C8DFF1F5C8DFF1F648DFF1FD4
:1048C800648DFF1F6C8DFF1F6C8DFF1F748DFF1F84
:1048D800748DFF1F7C8DFF1F7C8DFF1F848DFF1F34
:1048E800848DFF1F8C8DFF1F8C8DFF1F948DFF1FE4
:1048F800948DFF1F9C8DFF1F9C8DFF1FA48DFF1F94
:10490800A48DFF1FAC8DFF1FAC8DFF1FB48DFF1F43
:10491800B48DFF1FBC8DFF1FBC8DFF1FC48DFF1FF3
:10492800C48DFF1FCC8DFF1FCC8DFF1FD48DFF1FA3
:10493800D48DFF1FDC8DFF1FDC8DFF1FE48DFF1F53
:10494800E48DFF1FEC8DFF1FEC8DFF1FF48DFF1F03
:10495800F48DFF1FFC8DFF1FFC8DFF1F048EFF1FB2
:10496800048EFF1F0C8EFF1F0C8EFF1F148EFF1F5F
:10497800148EFF1F1C8EFF1F1C8EFF1F248EFF1F0F
:10498800248EFF1F2C8EFF1F2C8EFF1F348EFF1FBF
:10499800348EFF1F3C8EFF1F3C8EFF1F448EFF1F6F
:1049A800448EFF1F4C8EFF1F4C8EFF1F548EFF1F1F
:1049B800548EFF1F5C8EFF1F5C8EFF1F648EFF1FCF
:1049C800648EFF1F6C8EFF1F6C8EFF1F748EFF1F7F
:1049D800748EFF1F7C8EFF1F7C8EFF1F848EFF1F2F
:1049E800848EFF1F8C8EFF1F8C8EFF1F948EFF1FDF
:1049F800948EFF1F9C8EFF1F9C8EFF1FA48EFF1F8F
:104A0800A48EFF1FAC8EFF1FAC8EFF1FB48EFF1F3E
:104A1800B48EFF1FBC8EFF1FBC8EFF1FC48EFF1FEE
:104A2800C48EFF1FCC8EFF1FCC8EFF1FD48EFF1F9E
:104A3800D48EFF1FDC8EFF1FDC8EFF1FE48EFF1F4E
:104A4800E48EFF1FEC8EFF1FEC8EFF1FF48EFF1FFE
:104A5800F48EFF1FFC8EFF1FFC8EFF1F048FFF1FAD
:104A6800048FFF1F0C8FFF1F0C8FFF1F148FFF1F5A
:104A7800148FFF1F1C8FFF1F1C8FFF1F248FFF1F0A
:104A8800248FFF1F2C8FFF1F2C8FFF1F348FFF1FBA
:104A9800348FFF1F3C8FFF1F3C8FFF1F448FFF1F6A
:104AA800448FFF1F4C8FFF1F4C8FFF1F548FFF1F1A
:104AB800548FFF1F5C8FFF1F5C8FFF1F648FFF1FCA
:104AC800648FFF1F6C8FFF1F6C8FFF1F748FFF1F7A
:104AD800748FFF1F7C8FFF1F7C8FFF1F848FFF1F2A
:104AE800848FFF1F8C8FFF1F8C8FFF1F948FFF1FDA
:104AF800948FFF1F9C8FFF1F9C8FFF1FA48FFF1F8A
:104B0800A48FFF1FAC8FFF1FAC8FFF1FB48FFF1F39
:104B1800B48FFF1FBC8FFF1FBC8FFF1FC48FFF1FE9
:104B2800C48FFF1FCC8FFF1FCC8FFF1FD48FFF1F99
:104B3800D48FFF1FDC8FFF1FDC8FFF1FE48FFF1F49
:104B4800E48FFF1FEC8FFF1FEC8FFF1FF48FFF1FF9
:104B5800F48FFF1FFC8FFF1FFC8FFF1F0490FF1FA8
:104B68000490FF1F0C90FF1F0C90FF1F1490FF1F55
:104B78001490FF1F1C90FF1F1C90FF1F2490FF1F05
:104B88002490FF1F2C90FF1F2C90FF1F3490FF1FB5
:104B98003490FF1F3C90FF1F3C90FF1F4490FF1F65
:104BA8004490FF1F4C90FF1F4C90FF1F5490FF1F15
:104BB8005490FF1F5C90FF1F5C90FF1F6490FF1FC5
:104BC8006490FF1F6C90FF1F6C90FF1F7490FF1F75
:104BD8007490FF1F7C90FF1F7C90FF1F8490FF1F25
:104BE8008490FF1F8C90FF1F8C90FF1F0000020015
:044BF800FFFFFFFFBD
:00000001FF
